:1000000010C02AC029C028C027C026C025C024C0CF
:1000100023C022C021C020C01FC01EC01EC01CC0E3
:100020001BC011241FBECFE5D2E0DEBFCDBF10E064
:10003000A0E6B0E0E8E4F2E002C005900D92AA3636
:10004000B107D9F710E0AAE6B0E001C01D92A037D1
:10005000B107E1F716D0F6C0D3CF1F920F920FB6BB
:100060000F9211248F939F9381E090E090936C0006
:1000700080936B009F918F910F900FBE0F901F90F8
:10008000189580E888B985BF91E099BF8DE181BF5F
:1000900090BF8CE083BFE0916500F091660088E33B
:1000A000808320E038E4F9013197F1F7E0916500B1
:1000B000F09166008EE08083F9013197F1F7E091CD
:1000C0006500F09166009083C9010197F1F7E09116
:1000D0006500F091660086E08083C9010197F1F721
:1000E000E0916500F091660088EC8083C90101977A
:1000F000F1F786B380936F0080916F0088748093CE
:100100006F007894A1E020E038E442E050E071E62E
:100110006AE780916B0090916C000197D1F786B3EC
:1001200080936D0080916D00807980936D00909137
:100130006D0080916F009817C1F1809164008093E9
:100140006A0080916F00882381F580916D00803175
:10015000A1F480916A00815080936A0080916200CE
:100160009091630001979093630080936200809167
:100170006A00813610F460936A0080916D008038C7
:10018000A1F480916A008F5F80936A008091600083
:10019000909161000197909361008093600080913D
:1001A0006A008B3710F070936A0080916000909124
:1001B0006100892B91F4509361004093600080911D
:1001C0006A0080936400E0916700F091680080917C
:1001D00064008083C9010197F1F7809162009091DA
:1001E0006300892B91F450936300409362008091E7
:1001F0006A0080936400E0916700F091680080914C
:1002000064008083C9010197F1F786B380936E0083
:1002100080916E00807280936E0080916E008823C2
:1002200041F4E0916500F0916600A083C901019757
:10023000F1F710926C0010926B0080916D0080932A
:080240006F0067CFF894FFCFB7
:0A024800020002006104800580003E
:00000001FF
