:1000000010C023C031C020C01FC01EC01DC01CC0F6
:100010001BC01AC019C018C017C016C015C014C024
:1000200013C011241FBECFE5D2E0DEBFCDBF10E06C
:10003000A0E6B0E0E8EEF1E002C005900D92A43633
:10004000B107D9F71DD0CEC0DBCF1F920F920FB6EC
:100050000F9211248F938FEF809360008F910F90F8
:100060000FBE0F901F9018951F920F920FB60F9210
:100070001124109260000F900FBE0F901F901895E2
:1000800080E888B98EE885BF80EC8BBF88E38093D9
:10009000048020E038E4C9010197F1F78EE08093F5
:1000A0000480C9010197F1F781E080930480C901C0
:1000B0000197F1F786E080930480C9010197F1F779
:1000C000789459E340E328EB30E0A1E060E078E485
:1000D000809160008F3F69F580916300893320F43F
:1000E000809163008F5F2CC080916200893330F46F
:1000F00040936300809162008F5F2EC08091610009
:10010000893340F440936300409362008091610022
:100110008F5F30C080916200909161008933D9F582
:100120009933C9F5409363004093620040936100A6
:1001300032C080916300813330F080916300815040
:100140008093630028C080916200813340F0509317
:100150006300809162008150809362001CC0809196
:100160006100813350F0509363005093620080919E
:1001700061008150809361000EC080916100909178
:100180006200803341F4903331F450936300509314
:10019000620050936100809161008093058080ED42
:1001A00097E0F9013197F1F70197D9F78091620053
:1001B0008093058080ED97E0F9013197F1F7019781
:1001C000D9F7809163008093058080ED97E0F90175
:1001D0003197F1F70197D9F7A0930480CB010197EC
:0801E000F1F776CFF894FFCF90
:0401E800FF30303084
:00000001FF
