:1000000010C017C016C015C014C013C012C011C054
:1000100010C00FC00EC00DC00CC00BC00AC009C07C
:1000200008C011241FBECFE5D2E0DEBFCDBF02D095
:1000300043C0E6CF80E885BF88B980E197E228EB2E
:1000400030E0F9013197F1F70197D9F788E3809310
:10005000048020E038E4C9010197F1F78EE0809335
:100060000480C9010197F1F781E080930480C90100
:100070000197F1F786E080930480C9010197F1F7B9
:1000800021E648EB50E02093058080ED97E0FA01EF
:100090003197F1F70197D9F72F5F2B37A1F748E197
:1000A00028EB30E04093048080E197E2F90131973A
:0C00B000F1F70197D9F7F6CFF894FFCFD5
:00000001FF
